{"abi":[{"type":"constructor","inputs":[{"name":"_submissionFee","type":"uint256","internalType":"uint256"},{"name":"_operatorRegistry","type":"address","internalType":"address"},{"name":"_automataDcapAttestation","type":"address","internalType":"address"}],"stateMutability":"nonpayable"},{"type":"function","name":"automataDcapAttestation","inputs":[],"outputs":[{"name":"","type":"address","internalType":"contract IAutomataDcapAttestation"}],"stateMutability":"view"},{"type":"function","name":"getTask","inputs":[{"name":"_taskId","type":"uint256","internalType":"uint256"}],"outputs":[{"name":"task","type":"tuple","internalType":"struct TaskRegistry.Task","components":[{"name":"claim","type":"string","internalType":"string"},{"name":"user","type":"address","internalType":"address"},{"name":"operator","type":"address","internalType":"address"},{"name":"verificationResult","type":"uint8","internalType":"enum TaskRegistry.ClaimVerificationResult"}]}],"stateMutability":"view"},{"type":"function","name":"operatorRegistry","inputs":[],"outputs":[{"name":"","type":"address","internalType":"contract OperatorRegistry"}],"stateMutability":"view"},{"type":"function","name":"submissionFee","inputs":[],"outputs":[{"name":"","type":"uint256","internalType":"uint256"}],"stateMutability":"view"},{"type":"function","name":"submitTask","inputs":[{"name":"_claim","type":"string","internalType":"string"}],"outputs":[],"stateMutability":"payable"},{"type":"function","name":"submitVerificationResult","inputs":[{"name":"_taskId","type":"uint256","internalType":"uint256"},{"name":"_verificationResult","type":"uint8","internalType":"enum TaskRegistry.ClaimVerificationResult"},{"name":"_teeRaQuote","type":"bytes","internalType":"bytes"}],"outputs":[],"stateMutability":"nonpayable"},{"type":"function","name":"taskCount","inputs":[],"outputs":[{"name":"","type":"uint256","internalType":"uint256"}],"stateMutability":"view"},{"type":"function","name":"tasks","inputs":[{"name":"","type":"uint256","internalType":"uint256"}],"outputs":[{"name":"claim","type":"string","internalType":"string"},{"name":"user","type":"address","internalType":"address"},{"name":"operator","type":"address","internalType":"address"},{"name":"verificationResult","type":"uint8","internalType":"enum TaskRegistry.ClaimVerificationResult"}],"stateMutability":"view"},{"type":"event","name":"TaskSubmitted","inputs":[{"name":"taskId","type":"uint256","indexed":true,"internalType":"uint256"},{"name":"user","type":"address","indexed":true,"internalType":"address"},{"name":"operator","type":"address","indexed":true,"internalType":"address"},{"name":"claim","type":"string","indexed":false,"internalType":"string"}],"anonymous":false},{"type":"event","name":"TaskUpdated","inputs":[{"name":"taskId","type":"uint256","indexed":true,"internalType":"uint256"},{"name":"user","type":"address","indexed":true,"internalType":"address"},{"name":"operator","type":"address","indexed":true,"internalType":"address"},{"name":"verificationResult","type":"uint8","indexed":false,"internalType":"enum TaskRegistry.ClaimVerificationResult"}],"anonymous":false}],"bytecode":{"object":"0x6080604052348015600f57600080fd5b50604051612405380380612405833981016040819052602c91607e565b600080546001600160a01b03199081166001600160a01b0394851617825560029490945560035560018054909316911617905560b5565b80516001600160a01b0381168114607957600080fd5b919050565b600080600060608486031215609257600080fd5b8351925060a0602085016063565b915060ac604085016063565b90509250925092565b612341806100c46000396000f3fe60806040526004361061007b5760003560e01c80638d9776721161004e5780638d977672146101305780639a7b22b914610160578063b6cb58a514610173578063e88889421461019757600080fd5b806301cb3f4d146100805780631d65e77e146100a257806336383dc7146100d857806358c2225b14610110575b600080fd5b34801561008c57600080fd5b506100a061009b366004611bb2565b6101ad565b005b3480156100ae57600080fd5b506100c26100bd366004611c40565b6108aa565b6040516100cf9190611ce1565b60405180910390f35b3480156100e457600080fd5b506001546100f8906001600160a01b031681565b6040516001600160a01b0390911681526020016100cf565b34801561011c57600080fd5b506000546100f8906001600160a01b031681565b34801561013c57600080fd5b5061015061014b366004611c40565b6109f5565b6040516100cf9493929190611d3d565b6100a061016e366004611dec565b610ab8565b34801561017f57600080fd5b5061018960035481565b6040519081526020016100cf565b3480156101a357600080fd5b5061018960025481565b60035484106101d75760405162461bcd60e51b81526004016101ce90611e6b565b60405180910390fd5b60008085815260046020526040902060020154600160a01b900460ff16600581111561020557610205611ca9565b1461025e5760405162461bcd60e51b815260206004820152602360248201527f5461736b52656769737472793a207461736b20616c72656164792076657269666044820152621a595960ea1b60648201526084016101ce565b600083600581111561027257610272611ca9565b036102db5760405162461bcd60e51b815260206004820152603360248201527f5461736b52656769737472793a20766572696669636174696f6e20726573756c604482015272742063616e6e6f742062652050454e44494e4760681b60648201526084016101ce565b6000848152600460205260409020600201546001600160a01b0316331461036a5760405162461bcd60e51b815260206004820152603a60248201527f5461736b52656769737472793a206f6e6c79206f70657261746f722063616e2060448201527f7375626d697420766572696669636174696f6e20726573756c7400000000000060648201526084016101ce565b600154604051631c6c240560e11b815260009182916001600160a01b03909116906338d8480a906103a19087908790600401611eac565b600060405180830381865afa1580156103be573d6000803e3d6000fd5b505050506040513d6000823e601f3d908101601f191682016040526103e69190810190611edb565b9150915081610409578060405162461bcd60e51b81526004016101ce9190611f6c565b604080516030808252606082019092526000916020820181803683370190505090506102085b6102388110156104935785858281811061044b5761044b611f7f565b9050013560f81c60f81b82610208836104649190611fab565b8151811061047457610474611f7f565b60200101906001600160f81b031916908160001a90535060010161042f565b5060005460405163ddca670b60e01b81523360048201526001600160a01b039091169063ddca670b90602401602060405180830381865afa1580156104dc573d6000803e3d6000fd5b505050506040513d601f19601f820116820180604052508101906105009190611fbe565b81516020830120146105545760405162461bcd60e51b815260206004820152601c60248201527f5461736b52656769737472793a2052544d5233206d69736d617463680000000060448201526064016101ce565b600080600188600581111561056b5761056b611ca9565b036105a85761059e6040518060400160405280600d81526020016c6170702d646174613a7472756560981b815250610d80565b90925090506106db565b60028860058111156105bc576105bc611ca9565b036105f05761059e6040518060400160405280600e81526020016d6170702d646174613a66616c736560901b815250610d80565b600388600581111561060457610604611ca9565b0361063a5761059e6040518060400160405280601081526020016f6170702d646174613a646570656e647360801b815250610d80565b600488600581111561064e5761064e611ca9565b036106895761059e604051806040016040528060158152602001746170702d646174613a696e636f6e636c757369766560581b815250610d80565b600588600581111561069d5761069d611ca9565b036106db576106d5604051806040016040528060128152602001716170702d646174613a746f6f5f6561726c7960701b815250610d80565b90925090505b60006106ed610258610238898b611fd7565b6106f691612001565b9050600061070a6102786102588a8c611fd7565b61071391612001565b905083821415806107245750828114155b156107715760405162461bcd60e51b815260206004820152601c60248201527f5461736b52656769737472793a20636c61696d206d69736d617463680000000060448201526064016101ce565b60008b815260046020526040902060020180548b919060ff60a01b1916600160a01b8360058111156107a5576107a5611ca9565b0217905550600254604051339190600081818185875af1925050503d80600081146107ec576040519150601f19603f3d011682016040523d82523d6000602084013e6107f1565b606091505b505080975050866108445760405162461bcd60e51b815260206004820152601c60248201527f5461736b52656769737472793a207061796d656e74206661696c65640000000060448201526064016101ce565b60008b8152600460205260409081902060010154905133916001600160a01b0316908d907f5be8872f36924590e6141cda603aa675820621c3b9446e22d6b903f7846b745c90610895908f9061201f565b60405180910390a45050505050505050505050565b60408051608081018252606080825260006020830181905292820183905281019190915260035482106108ef5760405162461bcd60e51b81526004016101ce90611e6b565b600082815260046020526040908190208151608081019092528054829082906109179061202d565b80601f01602080910402602001604051908101604052809291908181526020018280546109439061202d565b80156109905780601f1061096557610100808354040283529160200191610990565b820191906000526020600020905b81548152906001019060200180831161097357829003601f168201915b505050918352505060018201546001600160a01b03908116602083015260028301549081166040830152606090910190600160a01b900460ff1660058111156109db576109db611ca9565b60058111156109ec576109ec611ca9565b90525092915050565b600460205260009081526040902080548190610a109061202d565b80601f0160208091040260200160405190810160405280929190818152602001828054610a3c9061202d565b8015610a895780601f10610a5e57610100808354040283529160200191610a89565b820191906000526020600020905b815481529060010190602001808311610a6c57829003601f168201915b50505050600183015460029093015491926001600160a01b03908116929081169150600160a01b900460ff1684565b600254341015610b0a5760405162461bcd60e51b815260206004820152601e60248201527f5461736b52656769737472793a20696e73756666696369656e7420666565000060448201526064016101ce565b6000805460405163e99e912960e01b81524360048201526001600160a01b039091169063e99e912990602401602060405180830381865afa158015610b53573d6000803e3d6000fd5b505050506040513d601f19601f82011682018060405250810190610b779190612067565b90508063ffffffff16600003610bdb5760405162461bcd60e51b8152602060048201526024808201527f5461736b52656769737472793a206e6f206f70657261746f727320617661696c60448201526361626c6560e01b60648201526084016101ce565b600080546001600160a01b03166348360cb4610bfd63ffffffff8516426120a3565b6040518263ffffffff1660e01b8152600401610c1b91815260200190565b602060405180830381865afa158015610c38573d6000803e3d6000fd5b505050506040513d601f19601f82011682018060405250810190610c5c91906120b7565b600354604080516080810182528681523360208201526001600160a01b03841691810191909152919250906060810160009052600082815260046020526040902081518190610cab908261212e565b5060208201516001820180546001600160a01b03199081166001600160a01b03938416179091556040840151600284018054928316919093169081178355606085015192916001600160a81b03191617600160a01b836005811115610d1257610d12611ca9565b0217905550506003805491506000610d29836121ec565b9190505550816001600160a01b0316336001600160a01b0316827fd164835dba2508c6accc00142fcc0247a29e7ce7f7f12ceabf49b4e235f31c1f87604051610d729190611f6c565b60405180910390a450505050565b6040805161010081018252676a09e667f3bcc908815267bb67ae8584caa73b6020820152673c6ef372fe94f82b9181019190915267a54ff53a5f1d36f1606082015267510e527fade682d16080820152679b05688c2b3e6c1f60a0820152671f83d9abfb41bd6b60c0820152675be0cd19137e217960e08201526000908190610e098482610ea6565b805160208083015160408085015160608601519151610e399560c090811b9594811b9492811b93901b9101612205565b604051602081830303815290604052610e5190612231565b608082015160a083015160c08085015160e0860151604051610e8495841b94841b9392831b929190911b90602001612205565b604051602081830303815290604052610e9c90612231565b9250925050915091565b60408051610a008101825267428a2f98d728ae228152677137449123ef65cd602082015267b5c0fbcfec4d3b2f9181019190915267e9b5dba58189dbbc6060820152673956c25bf348b53860808201526759f111f1b605d01960a082015267923f82a4af194f9b60c082015267ab1c5ed5da6d811860e082015267d807aa98a30302426101008201526712835b0145706fbe61012082015267243185be4ee4b28c61014082015267550c7dc3d5ffb4e26101608201526772be5d74f27b896f6101808201526780deb1fe3b1696b16101a0820152679bdc06a725c712356101c082015267c19bf174cf6926946101e082015267e49b69c19ef14ad261020082015267efbe4786384f25e3610220820152670fc19dc68b8cd5b561024082015267240ca1cc77ac9c65610260820152672de92c6f592b0275610280820152674a7484aa6ea6e4836102a0820152675cb0a9dcbd41fbd46102c08201526776f988da831153b56102e082015267983e5152ee66dfab61030082015267a831c66d2db4321061032082015267b00327c898fb213f61034082015267bf597fc7beef0ee461036082015267c6e00bf33da88fc261038082015267d5a79147930aa7256103a08201526706ca6351e003826f6103c082015267142929670a0e6e706103e08201526727b70a8546d22ffc610400820152672e1b21385c26c926610420820152674d2c6dfc5ac42aed6104408201526753380d139d95b3df61046082015267650a73548baf63de61048082015267766a0abb3c77b2a86104a08201526781c2c92e47edaee66104c08201526792722c851482353b6104e082015267a2bfe8a14cf1036461050082015267a81a664bbc42300161052082015267c24b8b70d0f8979161054082015267c76c51a30654be3061056082015267d192e819d6ef521861058082015267d69906245565a9106105a082015267f40e35855771202a6105c082015267106aa07032bbd1b86105e08201526719a4c116b8d2d0c8610600820152671e376c085141ab53610620820152672748774cdf8eeb996106408201526734b0bcb5e19b48a861066082015267391c0cb3c5c95a63610680820152674ed8aa4ae3418acb6106a0820152675b9cca4f7763e3736106c082015267682e6ff3d6b2b8a36106e082015267748f82ee5defb2fc6107008201526778a5636f43172f606107208201526784c87814a1f0ab72610740820152678cc702081a6439ec6107608201526790befffa23631e2861078082015267a4506cebde82bde96107a082015267bef9a3f7b2c679156107c082015267c67178f2e372532b6107e082015267ca273eceea26619c61080082015267d186b8c721c0c20761082082015267eada7dd6cde0eb1e61084082015267f57d4f7fee6ed1786108608201526706f067aa72176fba610880820152670a637dc5a2c898a66108a082015267113f9804bef90dae6108c0820152671b710b35131c471b6108e08201526728db77f523047d846109008201526732caab7b40c72493610920820152673c9ebe0a15c9bebc61094082015267431d67c49c100d4c610960820152674cc5d4becb3e42b661098082015267597f299cfc657e2a6109a0820152675fcb6fab3ad6faec6109c0820152676c44198c4a4758176109e08201526000611363846116e7565b90506080815161137391906120a3565b156113b05760405162461bcd60e51b815260206004820152600d60248201526c2820a22224a723afa2a92927a960991b60448201526064016101ce565b6113b8611b55565b6113c0611b74565b6113c8611b93565b6000608088516113d89190612255565b6113e3906080612269565b905060005b855182018110156116dc578181101561140b576114068984836117cf565b611418565b61141886848484036117cf565b60005b60108110156114685783816010811061143657611436611f7f565b602002015186826050811061144d5761144d611f7f565b6001600160401b03909216602092909202015260010161141b565b5060105b605081101561151d5785601082036050811061148a5761148a611f7f565b60200201516114b187600f8403605081106114a7576114a7611f7f565b602002015161182f565b8760078403605081106114c6576114c6611f7f565b60200201516114ed8960028603605081106114e3576114e3611f7f565b602002015161185d565b01010186826050811061150257611502611f7f565b6001600160401b03909216602092909202015260010161146c565b5060005b600881101561156e5788816008811061153c5761153c611f7f565b602002015185826008811061155357611553611f7f565b6001600160401b039092166020929092020152600101611521565b5060005b605081101561168057600086826050811061158f5761158f611f7f565b60200201518983605081106115a6576115a6611f7f565b6020020151608088015160a089015160c08a01516115c5929190611883565b60808901516115d390611893565b8960076020020151010101019050600061160c878260200201518860016020020151896002602002015180821690831691909216181890565b8751611617906118b6565b60c0890180516001600160401b0390811660e08c015260a08b018051821690925260808b018051821690925260608b0180518701821690925260408b018051821690925260208b01805182169092528a5181169091529101909201909116865250600101611572565b5060005b60088110156116d35784816008811061169f5761169f611f7f565b60200201518982600881106116b6576116b6611f7f565b602002018051919091016001600160401b03169052600101611684565b506080016113e8565b505050505050505050565b805160609060006116f9826008612269565b60c01b9050600061170b6080846120a3565b90506000607082101561172a57611723826077611fab565b9050611738565b6117358260f7611fab565b90505b6000816001600160401b0381111561175257611752611d7f565b6040519080825280601f01601f19166020018201604052801561177c576020820181803683370190505b50905060006117958861178f8689611fab565b886118d9565b6040519091506117b3908290600160ff1b9085908990602001612280565b6040516020818303038152906040529650505050505050919050565b60005b6010811015611829576117f9846117ea836008612269565b6117f490856122d9565b6119e7565b60c01c83826010811061180e5761180e611f7f565b6001600160401b0390921660209290920201526001016117d2565b50505050565b60006007826001600160401b0316901c61184a836008611a77565b611855846001611a77565b181892915050565b60006006826001600160401b0316901c61187883603d611a77565b611855846013611a77565b81831683198216185b9392505050565b60006118a0826029611a77565b6118ab836012611a77565b61185584600e611a77565b60006118c3826027611a77565b6118ce836022611a77565b61185584601c611a77565b60608183111561192b5760405162461bcd60e51b815260206004820152601a60248201527f46524f4d5f4c4553535f5448414e5f544f5f524551554952454400000000000060448201526064016101ce565b835182111561197c5760405162461bcd60e51b815260206004820152601c60248201527f544f5f4c4553535f5448414e5f4c454e4754485f52455155495245440000000060448201526064016101ce565b6119868383611fab565b6001600160401b0381111561199d5761199d611d7f565b6040519080825280601f01601f1916602001820160405280156119c7576020820181803683370190505b50905061188c6020820184602087016119e091906122d9565b8351611ab1565b60006119f48260086122d9565b83511015611a525760405162461bcd60e51b815260206004820152602560248201527f475245415445525f4f525f455155414c5f544f5f385f4c454e4754485f524551604482015264155254915160da1b60648201526084016101ce565b611a5d6020836122d9565b838101519092506001600160c01b03191690505b92915050565b60006001600160401b038381169083161c611a938360406122ec565b6001600160401b0316846001600160401b0316901b17905092915050565b6020811015611ada578151835160208390036101000a6000190180199092169116178352505050565b828203611ae657505050565b82821115611b205760208103905080820181840181515b82851015611b18578451865260209586019590940193611afd565b905250505050565b60208103905080820181840183515b81861215611b4b5782518252601f199283019290910190611b2f565b855250505b505050565b60405180610a0001604052806050906020820280368337509192915050565b6040518061010001604052806008906020820280368337509192915050565b6040518061020001604052806010906020820280368337509192915050565b60008060008060608587031215611bc857600080fd5b84359350602085013560068110611bde57600080fd5b925060408501356001600160401b03811115611bf957600080fd5b8501601f81018713611c0a57600080fd5b80356001600160401b03811115611c2057600080fd5b876020828401011115611c3257600080fd5b949793965060200194505050565b600060208284031215611c5257600080fd5b5035919050565b60005b83811015611c74578181015183820152602001611c5c565b50506000910152565b60008151808452611c95816020860160208601611c59565b601f01601f19169290920160200192915050565b634e487b7160e01b600052602160045260246000fd5b60068110611cdd57634e487b7160e01b600052602160045260246000fd5b9052565b602081526000825160806020840152611cfd60a0840182611c7d565b905060018060a01b03602085015116604084015260018060a01b0360408501511660608401526060840151611d356080850182611cbf565b509392505050565b608081526000611d506080830187611c7d565b6001600160a01b038681166020850152851660408401529050611d766060830184611cbf565b95945050505050565b634e487b7160e01b600052604160045260246000fd5b604051601f8201601f191681016001600160401b0381118282101715611dbd57611dbd611d7f565b604052919050565b60006001600160401b03821115611dde57611dde611d7f565b50601f01601f191660200190565b600060208284031215611dfe57600080fd5b81356001600160401b03811115611e1457600080fd5b8201601f81018413611e2557600080fd5b8035611e38611e3382611dc5565b611d95565b818152856020838501011115611e4d57600080fd5b81602084016020830137600091810160200191909152949350505050565b60208082526021908201527f5461736b52656769737472793a207461736b20646f6573206e6f7420657869736040820152601d60fa1b606082015260800190565b60208152816020820152818360408301376000818301604090810191909152601f909201601f19160101919050565b60008060408385031215611eee57600080fd5b82518015158114611efe57600080fd5b60208401519092506001600160401b03811115611f1a57600080fd5b8301601f81018513611f2b57600080fd5b8051611f39611e3382611dc5565b818152866020838501011115611f4e57600080fd5b611f5f826020830160208601611c59565b8093505050509250929050565b60208152600061188c6020830184611c7d565b634e487b7160e01b600052603260045260246000fd5b634e487b7160e01b600052601160045260246000fd5b81810381811115611a7157611a71611f95565b600060208284031215611fd057600080fd5b5051919050565b60008085851115611fe757600080fd5b83861115611ff457600080fd5b5050820193919092039150565b80356020831015611a7157600019602084900360031b1b1692915050565b60208101611a718284611cbf565b600181811c9082168061204157607f821691505b60208210810361206157634e487b7160e01b600052602260045260246000fd5b50919050565b60006020828403121561207957600080fd5b815163ffffffff8116811461188c57600080fd5b634e487b7160e01b600052601260045260246000fd5b6000826120b2576120b261208d565b500690565b6000602082840312156120c957600080fd5b81516001600160a01b038116811461188c57600080fd5b601f821115611b5057806000526020600020601f840160051c810160208510156121075750805b601f840160051c820191505b818110156121275760008155600101612113565b5050505050565b81516001600160401b0381111561214757612147611d7f565b61215b81612155845461202d565b846120e0565b6020601f82116001811461218f57600083156121775750848201515b600019600385901b1c1916600184901b178455612127565b600084815260208120601f198516915b828110156121bf578785015182556020948501946001909201910161219f565b50848210156121dd5786840151600019600387901b60f8161c191681555b50505050600190811b01905550565b6000600182016121fe576121fe611f95565b5060010190565b6001600160c01b0319948516815292841660088401529083166010830152909116601882015260200190565b805160208083015191908110156120615760001960209190910360031b1b16919050565b6000826122645761226461208d565b500490565b8082028115828204841417611a7157611a71611f95565b60008551612292818460208a01611c59565b6001600160f81b0319861690830190815284516122b6816001840160208901611c59565b6001600160c01b0319949094169301600181019390935250506009019392505050565b80820180821115611a7157611a71611f95565b6001600160401b038281168282160390811115611a7157611a71611f9556fea26469706673582212203eb574a46609534e4298b9b7ab774bd9c72c3510de64ef96439a59514daf3bac64736f6c634300081b0033","linkReferences":{}},"methodIdentifiers":{"automataDcapAttestation()":"36383dc7","getTask(uint256)":"1d65e77e","operatorRegistry()":"58c2225b","submissionFee()":"e8888942","submitTask(string)":"9a7b22b9","submitVerificationResult(uint256,uint8,bytes)":"01cb3f4d","taskCount()":"b6cb58a5","tasks(uint256)":"8d977672"},"id":24}